{
  "contractName": "Project",
  "abi": [
    {
      "inputs": [],
      "stateMutability": "payable",
      "type": "constructor"
    },
    {
      "anonymous": false,
      "inputs": [
        {
          "indexed": false,
          "internalType": "address",
          "name": "_to",
          "type": "address"
        },
        {
          "indexed": false,
          "internalType": "uint256",
          "name": "_amount",
          "type": "uint256"
        }
      ],
      "name": "compensationReleased",
      "type": "event"
    },
    {
      "anonymous": false,
      "inputs": [
        {
          "indexed": false,
          "internalType": "address",
          "name": "_to",
          "type": "address"
        },
        {
          "indexed": false,
          "internalType": "uint256",
          "name": "_amount",
          "type": "uint256"
        }
      ],
      "name": "fundsWithdrawn",
      "type": "event"
    },
    {
      "anonymous": false,
      "inputs": [
        {
          "indexed": false,
          "internalType": "uint256",
          "name": "_id",
          "type": "uint256"
        },
        {
          "indexed": false,
          "internalType": "address",
          "name": "_addr",
          "type": "address"
        }
      ],
      "name": "taskAdded",
      "type": "event"
    },
    {
      "inputs": [],
      "name": "defaultDeposit",
      "outputs": [
        {
          "internalType": "uint256",
          "name": "",
          "type": "uint256"
        }
      ],
      "stateMutability": "view",
      "type": "function"
    },
    {
      "inputs": [],
      "name": "drp",
      "outputs": [
        {
          "internalType": "contract Drop",
          "name": "",
          "type": "address"
        }
      ],
      "stateMutability": "view",
      "type": "function"
    },
    {
      "inputs": [],
      "name": "getProjectBudgetEther",
      "outputs": [
        {
          "internalType": "uint256",
          "name": "",
          "type": "uint256"
        }
      ],
      "stateMutability": "view",
      "type": "function"
    },
    {
      "inputs": [],
      "name": "getProjectBudgetDrop",
      "outputs": [
        {
          "internalType": "uint256",
          "name": "",
          "type": "uint256"
        }
      ],
      "stateMutability": "view",
      "type": "function"
    },
    {
      "inputs": [],
      "name": "withdrawProjectBudget",
      "outputs": [],
      "stateMutability": "nonpayable",
      "type": "function"
    },
    {
      "inputs": [
        {
          "internalType": "string",
          "name": "_title",
          "type": "string"
        },
        {
          "internalType": "uint256",
          "name": "_id",
          "type": "uint256"
        }
      ],
      "name": "addTask",
      "outputs": [],
      "stateMutability": "nonpayable",
      "type": "function"
    },
    {
      "inputs": [
        {
          "internalType": "uint256",
          "name": "_id",
          "type": "uint256"
        },
        {
          "internalType": "address",
          "name": "_assignee",
          "type": "address"
        },
        {
          "internalType": "uint256",
          "name": "_compensation",
          "type": "uint256"
        }
      ],
      "name": "setTaskAssignee",
      "outputs": [],
      "stateMutability": "nonpayable",
      "type": "function"
    },
    {
      "inputs": [
        {
          "internalType": "uint256",
          "name": "_id",
          "type": "uint256"
        },
        {
          "internalType": "address",
          "name": "_oracle",
          "type": "address"
        },
        {
          "internalType": "uint256",
          "name": "_compensation",
          "type": "uint256"
        }
      ],
      "name": "setTaskOracle",
      "outputs": [],
      "stateMutability": "nonpayable",
      "type": "function"
    },
    {
      "inputs": [],
      "name": "resolveProject",
      "outputs": [],
      "stateMutability": "nonpayable",
      "type": "function"
    },
    {
      "inputs": [],
      "name": "withdrawTask",
      "outputs": [],
      "stateMutability": "nonpayable",
      "type": "function"
    },
    {
      "inputs": [
        {
          "internalType": "uint256",
          "name": "_id",
          "type": "uint256"
        }
      ],
      "name": "startWorkingOnTask",
      "outputs": [],
      "stateMutability": "payable",
      "type": "function"
    },
    {
      "inputs": [
        {
          "internalType": "uint256",
          "name": "_id",
          "type": "uint256"
        }
      ],
      "name": "resolveTask",
      "outputs": [],
      "stateMutability": "nonpayable",
      "type": "function"
    },
    {
      "inputs": [
        {
          "internalType": "uint256",
          "name": "_id",
          "type": "uint256"
        }
      ],
      "name": "closeTask",
      "outputs": [],
      "stateMutability": "nonpayable",
      "type": "function"
    },
    {
      "inputs": [
        {
          "internalType": "uint256",
          "name": "_id",
          "type": "uint256"
        }
      ],
      "name": "setStatusOnHold",
      "outputs": [],
      "stateMutability": "nonpayable",
      "type": "function"
    },
    {
      "inputs": [
        {
          "internalType": "uint256",
          "name": "_id",
          "type": "uint256"
        }
      ],
      "name": "cancelTask",
      "outputs": [],
      "stateMutability": "nonpayable",
      "type": "function"
    },
    {
      "inputs": [
        {
          "internalType": "uint256",
          "name": "_id",
          "type": "uint256"
        }
      ],
      "name": "getTaskAddress",
      "outputs": [
        {
          "internalType": "address",
          "name": "",
          "type": "address"
        }
      ],
      "stateMutability": "view",
      "type": "function"
    },
    {
      "inputs": [],
      "name": "getDropAddress",
      "outputs": [
        {
          "internalType": "address",
          "name": "",
          "type": "address"
        }
      ],
      "stateMutability": "view",
      "type": "function"
    }
  ],
  "bytecode": "0x6080604052600560065533600460006101000a81548173ffffffffffffffffffffffffffffffffffffffff021916908373ffffffffffffffffffffffffffffffffffffffff16021790555034604051610057906100c2565b80828152602001915050604051809103906000f08015801561007d573d6000803e3d6000fd5b506000806101000a81548173ffffffffffffffffffffffffffffffffffffffff021916908373ffffffffffffffffffffffffffffffffffffffff1602179055506100d0565b611539806200381b83390190565b61373b80620000e06000396000f3fe608060405260043610620001165760003560e01c80636701889011620000a3578063a737e987116200006d578063a737e98714620004b4578063afab1f52146200050e578063ec7387711462000577578063f930507914620005a5578063ffe392e114620005bf5762000116565b80636701889014620003985780637d38aea014620003f25780637eec20a8146200045b578063920ead3a146200049a5762000116565b80633143d08211620000e55780633143d0821462000221578063456d908e14620002fa578063525686d61462000339578063562effd4146200036a5762000116565b80630ddffb8e146200011b5780631001ab8314620001495780631201dfc614620001c857806324cf41c51462000207575b600080fd5b3480156200012857600080fd5b5062000133620005fe565b6040518082815260200191505060405180910390f35b3480156200015657600080fd5b5062000186600480360360208110156200016f57600080fd5b810190808035906020019092919050505062000789565b604051808273ffffffffffffffffffffffffffffffffffffffff1673ffffffffffffffffffffffffffffffffffffffff16815260200191505060405180910390f35b348015620001d557600080fd5b506200020560048036036020811015620001ee57600080fd5b8101908080359060200190929190505050620007c6565b005b3480156200021457600080fd5b506200021f62000d00565b005b3480156200022e57600080fd5b50620002f8600480360360408110156200024757600080fd5b81019080803590602001906401000000008111156200026557600080fd5b8201836020820111156200027857600080fd5b803590602001918460018302840111640100000000831117156200029b57600080fd5b91908080601f016020809104026020016040519081016040528093929190818152602001838380828437600081840152601f19601f8201169050808301925050505050505091929192908035906020019092919050505062000e9f565b005b3480156200030757600080fd5b5062000337600480360360208110156200032057600080fd5b81019080803590602001909291905050506200123e565b005b62000368600480360360208110156200035157600080fd5b810190808035906020019092919050505062001475565b005b3480156200037757600080fd5b506200038262001b42565b6040518082815260200191505060405180910390f35b348015620003a557600080fd5b50620003b062001bf2565b604051808273ffffffffffffffffffffffffffffffffffffffff1673ffffffffffffffffffffffffffffffffffffffff16815260200191505060405180910390f35b348015620003ff57600080fd5b5062000459600480360360608110156200041857600080fd5b8101908080359060200190929190803573ffffffffffffffffffffffffffffffffffffffff1690602001909291908035906020019092919050505062001c17565b005b3480156200046857600080fd5b5062000498600480360360208110156200048157600080fd5b810190808035906020019092919050505062001f06565b005b348015620004a757600080fd5b50620004b262001f09565b005b348015620004c157600080fd5b50620004cc62001fdd565b604051808273ffffffffffffffffffffffffffffffffffffffff1673ffffffffffffffffffffffffffffffffffffffff16815260200191505060405180910390f35b3480156200051b57600080fd5b5062000575600480360360608110156200053457600080fd5b8101908080359060200190929190803573ffffffffffffffffffffffffffffffffffffffff1690602001909291908035906020019092919050505062002006565b005b3480156200058457600080fd5b506200058f620022f5565b6040518082815260200191505060405180910390f35b348015620005b257600080fd5b50620005bd620022fb565b005b348015620005cc57600080fd5b50620005fc60048036036020811015620005e557600080fd5b810190808035906020019092919050505062002820565b005b6000600460009054906101000a900473ffffffffffffffffffffffffffffffffffffffff1673ffffffffffffffffffffffffffffffffffffffff163373ffffffffffffffffffffffffffffffffffffffff1614620006a8576040517f08c379a0000000000000000000000000000000000000000000000000000000008152600401808060200182810382526037815260200180620036996037913960400191505060405180910390fd5b6000809054906101000a900473ffffffffffffffffffffffffffffffffffffffff1673ffffffffffffffffffffffffffffffffffffffff166370a08231306040518263ffffffff1660e01b8152600401808273ffffffffffffffffffffffffffffffffffffffff1673ffffffffffffffffffffffffffffffffffffffff16815260200191505060206040518083038186803b1580156200074757600080fd5b505afa1580156200075c573d6000803e3d6000fd5b505050506040513d60208110156200077357600080fd5b8101908080519060200190929190505050905090565b60006001600083815260200190815260200160002060009054906101000a900473ffffffffffffffffffffffffffffffffffffffff169050919050565b60006001600083815260200190815260200160002060009054906101000a900473ffffffffffffffffffffffffffffffffffffffff1690508073ffffffffffffffffffffffffffffffffffffffff16637dc0d1d06040518163ffffffff1660e01b815260040160206040518083038186803b1580156200084557600080fd5b505afa1580156200085a573d6000803e3d6000fd5b505050506040513d60208110156200087157600080fd5b810190808051906020019092919050505073ffffffffffffffffffffffffffffffffffffffff163373ffffffffffffffffffffffffffffffffffffffff1614801562000940575060028173ffffffffffffffffffffffffffffffffffffffff1663200d2ed26040518163ffffffff1660e01b815260040160206040518083038186803b1580156200090157600080fd5b505afa15801562000916573d6000803e3d6000fd5b505050506040513d60208110156200092d57600080fd5b8101908080519060200190929190505050145b620009b3576040517f08c379a000000000000000000000000000000000000000000000000000000000815260040180806020018281038252601b8152602001807f4f6e6c79204f7261636c652063616e20636c6f7365207461736b73000000000081525060200191505060405180910390fd5b60028173ffffffffffffffffffffffffffffffffffffffff1663200d2ed26040518163ffffffff1660e01b815260040160206040518083038186803b158015620009fc57600080fd5b505afa15801562000a11573d6000803e3d6000fd5b505050506040513d602081101562000a2857600080fd5b81019080805190602001909291905050501462000aad576040517f08c379a00000000000000000000000000000000000000000000000000000000081526004018080602001828103825260168152602001807f5461736b73206d757374206265205265736f6c7665640000000000000000000081525060200191505060405180910390fd5b8073ffffffffffffffffffffffffffffffffffffffff1663044cc7fd6040518163ffffffff1660e01b8152600401600060405180830381600087803b15801562000af657600080fd5b505af115801562000b0b573d6000803e3d6000fd5b505050506000809054906101000a900473ffffffffffffffffffffffffffffffffffffffff1673ffffffffffffffffffffffffffffffffffffffff1663a9059cbb8273ffffffffffffffffffffffffffffffffffffffff1663682c994c6040518163ffffffff1660e01b815260040160206040518083038186803b15801562000b9357600080fd5b505afa15801562000ba8573d6000803e3d6000fd5b505050506040513d602081101562000bbf57600080fd5b81019080805190602001909291905050508373ffffffffffffffffffffffffffffffffffffffff166315cd38ca6040518163ffffffff1660e01b815260040160206040518083038186803b15801562000c1757600080fd5b505afa15801562000c2c573d6000803e3d6000fd5b505050506040513d602081101562000c4357600080fd5b81019080805190602001909291905050506040518363ffffffff1660e01b8152600401808373ffffffffffffffffffffffffffffffffffffffff1673ffffffffffffffffffffffffffffffffffffffff16815260200182815260200192505050602060405180830381600087803b15801562000cbe57600080fd5b505af115801562000cd3573d6000803e3d6000fd5b505050506040513d602081101562000cea57600080fd5b8101908080519060200190929190505050505050565b600460009054906101000a900473ffffffffffffffffffffffffffffffffffffffff1673ffffffffffffffffffffffffffffffffffffffff163373ffffffffffffffffffffffffffffffffffffffff161462000da8576040517f08c379a0000000000000000000000000000000000000000000000000000000008152600401808060200182810382526035815260200180620035fd6035913960400191505060405180910390fd5b600460009054906101000a900473ffffffffffffffffffffffffffffffffffffffff1673ffffffffffffffffffffffffffffffffffffffff166108fc479081150290604051600060405180830381858888f193505050501562000e98577f8a43c200a722669df503c8997c4ae4af96d8849cba45c39bccf948d45223e770600460009054906101000a900473ffffffffffffffffffffffffffffffffffffffff1647604051808373ffffffffffffffffffffffffffffffffffffffff1673ffffffffffffffffffffffffffffffffffffffff1681526020018281526020019250505060405180910390a162000e9d565b600080fd5b565b600460009054906101000a900473ffffffffffffffffffffffffffffffffffffffff1673ffffffffffffffffffffffffffffffffffffffff163373ffffffffffffffffffffffffffffffffffffffff161462000f63576040517f08c379a00000000000000000000000000000000000000000000000000000000081526004018080602001828103825260168152602001807f4f6e6c79206f776e65722063616e20646f20746869730000000000000000000081525060200191505060405180910390fd5b600082308360405162000f769062002a81565b80806020018473ffffffffffffffffffffffffffffffffffffffff1673ffffffffffffffffffffffffffffffffffffffff168152602001838152602001828103825285818151815260200191508051906020019080838360005b8381101562000fed57808201518184015260208101905062000fd0565b50505050905090810190601f1680156200101b5780820380516001836020036101000a031916815260200191505b50945050505050604051809103906000f0801580156200103f573d6000803e3d6000fd5b5090508073ffffffffffffffffffffffffffffffffffffffff166388502f696006546040518263ffffffff1660e01b815260040180828152602001915050600060405180830381600087803b1580156200109857600080fd5b505af1158015620010ad573d6000803e3d6000fd5b505050508073ffffffffffffffffffffffffffffffffffffffff16632fbe58476006546040518263ffffffff1660e01b815260040180828152602001915050600060405180830381600087803b1580156200110757600080fd5b505af11580156200111c573d6000803e3d6000fd5b50505050806001600084815260200190815260200160002060006101000a81548173ffffffffffffffffffffffffffffffffffffffff021916908373ffffffffffffffffffffffffffffffffffffffff16021790555060038290806001815401808255809150506001900390600052602060002001600090919091909150557fdc0b0345dde6b654734cabc2a532a38324a6baaab536d959cc62e993cda3c951826001600085815260200190815260200160002060009054906101000a900473ffffffffffffffffffffffffffffffffffffffff16604051808381526020018273ffffffffffffffffffffffffffffffffffffffff1673ffffffffffffffffffffffffffffffffffffffff1681526020019250505060405180910390a1505050565b60006001600083815260200190815260200160002060009054906101000a900473ffffffffffffffffffffffffffffffffffffffff1690508073ffffffffffffffffffffffffffffffffffffffff1663682c994c6040518163ffffffff1660e01b815260040160206040518083038186803b158015620012bd57600080fd5b505afa158015620012d2573d6000803e3d6000fd5b505050506040513d6020811015620012e957600080fd5b810190808051906020019092919050505073ffffffffffffffffffffffffffffffffffffffff163373ffffffffffffffffffffffffffffffffffffffff16148015620013b8575060018173ffffffffffffffffffffffffffffffffffffffff1663200d2ed26040518163ffffffff1660e01b815260040160206040518083038186803b1580156200137957600080fd5b505afa1580156200138e573d6000803e3d6000fd5b505050506040513d6020811015620013a557600080fd5b8101908080519060200190929190505050145b6200140f576040517f08c379a000000000000000000000000000000000000000000000000000000000815260040180806020018281038252603a81526020018062003632603a913960400191505060405180910390fd5b8073ffffffffffffffffffffffffffffffffffffffff1663654d3a196040518163ffffffff1660e01b8152600401600060405180830381600087803b1580156200145857600080fd5b505af11580156200146d573d6000803e3d6000fd5b505050505050565b60006001600083815260200190815260200160002060009054906101000a900473ffffffffffffffffffffffffffffffffffffffff1690508073ffffffffffffffffffffffffffffffffffffffff16637dc0d1d06040518163ffffffff1660e01b815260040160206040518083038186803b158015620014f457600080fd5b505afa15801562001509573d6000803e3d6000fd5b505050506040513d60208110156200152057600080fd5b810190808051906020019092919050505073ffffffffffffffffffffffffffffffffffffffff163373ffffffffffffffffffffffffffffffffffffffff1614806200161957508073ffffffffffffffffffffffffffffffffffffffff1663682c994c6040518163ffffffff1660e01b815260040160206040518083038186803b158015620015ad57600080fd5b505afa158015620015c2573d6000803e3d6000fd5b505050506040513d6020811015620015d957600080fd5b810190808051906020019092919050505073ffffffffffffffffffffffffffffffffffffffff163373ffffffffffffffffffffffffffffffffffffffff16145b62001670576040517f08c379a0000000000000000000000000000000000000000000000000000000008152600401808060200182810382526036815260200180620036d06036913960400191505060405180910390fd5b8073ffffffffffffffffffffffffffffffffffffffff16637dc0d1d06040518163ffffffff1660e01b815260040160206040518083038186803b158015620016b757600080fd5b505afa158015620016cc573d6000803e3d6000fd5b505050506040513d6020811015620016e357600080fd5b810190808051906020019092919050505073ffffffffffffffffffffffffffffffffffffffff163373ffffffffffffffffffffffffffffffffffffffff16141562001833578073ffffffffffffffffffffffffffffffffffffffff166360f7e6ae6040518163ffffffff1660e01b815260040160206040518083038186803b1580156200176f57600080fd5b505afa15801562001784573d6000803e3d6000fd5b505050506040513d60208110156200179b57600080fd5b810190808051906020019092919050505034141562001828578073ffffffffffffffffffffffffffffffffffffffff16632fbe584760006040518263ffffffff1660e01b815260040180828152602001915050600060405180830381600087803b1580156200180957600080fd5b505af11580156200181e573d6000803e3d6000fd5b505050506200182d565b600080fd5b62001939565b8073ffffffffffffffffffffffffffffffffffffffff16637b92f3ae6040518163ffffffff1660e01b815260040160206040518083038186803b1580156200187a57600080fd5b505afa1580156200188f573d6000803e3d6000fd5b505050506040513d6020811015620018a657600080fd5b810190808051906020019092919050505034141562001933578073ffffffffffffffffffffffffffffffffffffffff166388502f6960006040518263ffffffff1660e01b815260040180828152602001915050600060405180830381600087803b1580156200191457600080fd5b505af115801562001929573d6000803e3d6000fd5b5050505062001938565b600080fd5b5b60008173ffffffffffffffffffffffffffffffffffffffff166360f7e6ae6040518163ffffffff1660e01b815260040160206040518083038186803b1580156200198257600080fd5b505afa15801562001997573d6000803e3d6000fd5b505050506040513d6020811015620019ae57600080fd5b81019080805190602001909291905050508273ffffffffffffffffffffffffffffffffffffffff16637b92f3ae6040518163ffffffff1660e01b815260040160206040518083038186803b15801562001a0657600080fd5b505afa15801562001a1b573d6000803e3d6000fd5b505050506040513d602081101562001a3257600080fd5b81019080805190602001909291905050500114801562001ad5575060008173ffffffffffffffffffffffffffffffffffffffff1663200d2ed26040518163ffffffff1660e01b815260040160206040518083038186803b15801562001a9657600080fd5b505afa15801562001aab573d6000803e3d6000fd5b505050506040513d602081101562001ac257600080fd5b8101908080519060200190929190505050145b1562001b3e578073ffffffffffffffffffffffffffffffffffffffff166369133f456040518163ffffffff1660e01b8152600401600060405180830381600087803b15801562001b2457600080fd5b505af115801562001b39573d6000803e3d6000fd5b505050505b5050565b6000600460009054906101000a900473ffffffffffffffffffffffffffffffffffffffff1673ffffffffffffffffffffffffffffffffffffffff163373ffffffffffffffffffffffffffffffffffffffff161462001bec576040517f08c379a0000000000000000000000000000000000000000000000000000000008152600401808060200182810382526037815260200180620036996037913960400191505060405180910390fd5b47905090565b6000809054906101000a900473ffffffffffffffffffffffffffffffffffffffff1681565b600460009054906101000a900473ffffffffffffffffffffffffffffffffffffffff1673ffffffffffffffffffffffffffffffffffffffff163373ffffffffffffffffffffffffffffffffffffffff161462001cdb576040517f08c379a00000000000000000000000000000000000000000000000000000000081526004018080602001828103825260168152602001807f4f6e6c79206f776e65722063616e20646f20746869730000000000000000000081525060200191505060405180910390fd5b60006001600085815260200190815260200160002060009054906101000a900473ffffffffffffffffffffffffffffffffffffffff1690508073ffffffffffffffffffffffffffffffffffffffff166398b558df846040518263ffffffff1660e01b8152600401808273ffffffffffffffffffffffffffffffffffffffff1673ffffffffffffffffffffffffffffffffffffffff168152602001915050600060405180830381600087803b15801562001d9357600080fd5b505af115801562001da8573d6000803e3d6000fd5b505050506000809054906101000a900473ffffffffffffffffffffffffffffffffffffffff1673ffffffffffffffffffffffffffffffffffffffff1663a9059cbb82846040518363ffffffff1660e01b8152600401808373ffffffffffffffffffffffffffffffffffffffff1673ffffffffffffffffffffffffffffffffffffffff16815260200182815260200192505050602060405180830381600087803b15801562001e5557600080fd5b505af115801562001e6a573d6000803e3d6000fd5b505050506040513d602081101562001e8157600080fd5b8101908080519060200190929190505050508073ffffffffffffffffffffffffffffffffffffffff1663c63e2e81836040518263ffffffff1660e01b815260040180828152602001915050600060405180830381600087803b15801562001ee757600080fd5b505af115801562001efc573d6000803e3d6000fd5b5050505050505050565b50565b6000600260003373ffffffffffffffffffffffffffffffffffffffff1673ffffffffffffffffffffffffffffffffffffffff1681526020019081526020016000205490506000600260003373ffffffffffffffffffffffffffffffffffffffff1673ffffffffffffffffffffffffffffffffffffffff168152602001908152602001600020819055503373ffffffffffffffffffffffffffffffffffffffff166108fc829081150290604051600060405180830381858888f1935050505015801562001fd9573d6000803e3d6000fd5b5050565b60008060009054906101000a900473ffffffffffffffffffffffffffffffffffffffff16905090565b600460009054906101000a900473ffffffffffffffffffffffffffffffffffffffff1673ffffffffffffffffffffffffffffffffffffffff163373ffffffffffffffffffffffffffffffffffffffff1614620020ca576040517f08c379a00000000000000000000000000000000000000000000000000000000081526004018080602001828103825260168152602001807f4f6e6c79206f776e65722063616e20646f20746869730000000000000000000081525060200191505060405180910390fd5b60006001600085815260200190815260200160002060009054906101000a900473ffffffffffffffffffffffffffffffffffffffff1690508073ffffffffffffffffffffffffffffffffffffffff16637adbf973846040518263ffffffff1660e01b8152600401808273ffffffffffffffffffffffffffffffffffffffff1673ffffffffffffffffffffffffffffffffffffffff168152602001915050600060405180830381600087803b1580156200218257600080fd5b505af115801562002197573d6000803e3d6000fd5b505050506000809054906101000a900473ffffffffffffffffffffffffffffffffffffffff1673ffffffffffffffffffffffffffffffffffffffff1663a9059cbb82846040518363ffffffff1660e01b8152600401808373ffffffffffffffffffffffffffffffffffffffff1673ffffffffffffffffffffffffffffffffffffffff16815260200182815260200192505050602060405180830381600087803b1580156200224457600080fd5b505af115801562002259573d6000803e3d6000fd5b505050506040513d60208110156200227057600080fd5b8101908080519060200190929190505050508073ffffffffffffffffffffffffffffffffffffffff1663cb544cf4836040518263ffffffff1660e01b815260040180828152602001915050600060405180830381600087803b158015620022d657600080fd5b505af1158015620022eb573d6000803e3d6000fd5b5050505050505050565b60065481565b600460009054906101000a900473ffffffffffffffffffffffffffffffffffffffff1673ffffffffffffffffffffffffffffffffffffffff163373ffffffffffffffffffffffffffffffffffffffff1614620023bf576040517f08c379a00000000000000000000000000000000000000000000000000000000081526004018080602001828103825260168152602001807f4f6e6c79206f776e65722063616e20646f20746869730000000000000000000081525060200191505060405180910390fd5b60008060009050600080905060008090505b60038054905081101562002557576001600060038381548110620023f157fe5b9060005260206000200154815260200190815260200160002060009054906101000a900473ffffffffffffffffffffffffffffffffffffffff16935060038473ffffffffffffffffffffffffffffffffffffffff1663200d2ed26040518163ffffffff1660e01b815260040160206040518083038186803b1580156200247657600080fd5b505afa1580156200248b573d6000803e3d6000fd5b505050506040513d6020811015620024a257600080fd5b8101908080519060200190929190505050141562002549576001830192508373ffffffffffffffffffffffffffffffffffffffff166379bef36f6040518163ffffffff1660e01b815260040160206040518083038186803b1580156200250757600080fd5b505afa1580156200251c573d6000803e3d6000fd5b505050506040513d60208110156200253357600080fd5b8101908080519060200190929190505050820191505b8080600101915050620023d1565b50600380549050821480156200264857506000809054906101000a900473ffffffffffffffffffffffffffffffffffffffff1673ffffffffffffffffffffffffffffffffffffffff166370a08231306040518263ffffffff1660e01b8152600401808273ffffffffffffffffffffffffffffffffffffffff1673ffffffffffffffffffffffffffffffffffffffff16815260200191505060206040518083038186803b1580156200260757600080fd5b505afa1580156200261c573d6000803e3d6000fd5b505050506040513d60208110156200263357600080fd5b81019080805190602001909291905050508111155b156200281b57600260058190555060008090505b600380549050811015620028195760016000600383815481106200267c57fe5b9060005260206000200154815260200190815260200160002060009054906101000a900473ffffffffffffffffffffffffffffffffffffffff1693508373ffffffffffffffffffffffffffffffffffffffff166379bef36f6040518163ffffffff1660e01b815260040160206040518083038186803b158015620026ff57600080fd5b505afa15801562002714573d6000803e3d6000fd5b505050506040513d60208110156200272b57600080fd5b8101908080519060200190929190505050600260008673ffffffffffffffffffffffffffffffffffffffff16637dc0d1d06040518163ffffffff1660e01b815260040160206040518083038186803b1580156200278757600080fd5b505afa1580156200279c573d6000803e3d6000fd5b505050506040513d6020811015620027b357600080fd5b810190808051906020019092919050505073ffffffffffffffffffffffffffffffffffffffff1673ffffffffffffffffffffffffffffffffffffffff1681526020019081526020016000206000828254019250508190555080806001019150506200265c565b505b505050565b60006001600083815260200190815260200160002060009054906101000a900473ffffffffffffffffffffffffffffffffffffffff1690508073ffffffffffffffffffffffffffffffffffffffff1663682c994c6040518163ffffffff1660e01b815260040160206040518083038186803b1580156200289f57600080fd5b505afa158015620028b4573d6000803e3d6000fd5b505050506040513d6020811015620028cb57600080fd5b810190808051906020019092919050505073ffffffffffffffffffffffffffffffffffffffff163373ffffffffffffffffffffffffffffffffffffffff161480620029c457508073ffffffffffffffffffffffffffffffffffffffff16637dc0d1d06040518163ffffffff1660e01b815260040160206040518083038186803b1580156200295857600080fd5b505afa1580156200296d573d6000803e3d6000fd5b505050506040513d60208110156200298457600080fd5b810190808051906020019092919050505073ffffffffffffffffffffffffffffffffffffffff163373ffffffffffffffffffffffffffffffffffffffff16145b62002a1b576040517f08c379a000000000000000000000000000000000000000000000000000000000815260040180806020018281038252602d8152602001806200366c602d913960400191505060405180910390fd5b8073ffffffffffffffffffffffffffffffffffffffff1663b677d6b26040518163ffffffff1660e01b8152600401600060405180830381600087803b15801562002a6457600080fd5b505af115801562002a79573d6000803e3d6000fd5b505050505050565b610b6d8062002a908339019056fe608060405234801561001057600080fd5b50604051610b6d380380610b6d8339818101604052606081101561003357600080fd5b810190808051604051939291908464010000000082111561005357600080fd5b8382019150602082018581111561006957600080fd5b825186600182028301116401000000008211171561008657600080fd5b8083526020830192505050908051906020019080838360005b838110156100ba57808201518184015260208101905061009f565b50505050905090810190601f1680156100e75780820380516001836020036101000a031916815260200191505b506040526020018051906020019092919080519060200190929190505050826001908051906020019061011b92919061016c565b508060008190555081600360006101000a81548173ffffffffffffffffffffffffffffffffffffffff021916908373ffffffffffffffffffffffffffffffffffffffff160217905550505050610211565b828054600181600116156101000203166002900490600052602060002090601f016020900481019282601f106101ad57805160ff19168380011785556101db565b828001600101855582156101db579182015b828111156101da5782518255916020019190600101906101bf565b5b5090506101e891906101ec565b5090565b61020e91905b8082111561020a5760008160009055506001016101f2565b5090565b90565b61094d806102206000396000f3fe608060405234801561001057600080fd5b506004361061010b5760003560e01c806379bef36f116100a257806388502f691161007157806388502f69146102ca57806398b558df146102f8578063b677d6b21461033c578063c63e2e8114610346578063cb544cf4146103745761010b565b806379bef36f146102005780637adbf9731461021e5780637b92f3ae146102625780637dc0d1d0146102805761010b565b806360f7e6ae116100de57806360f7e6ae14610184578063654d3a19146101a2578063682c994c146101ac57806369133f45146101f65761010b565b8063044cc7fd1461011057806315cd38ca1461011a578063200d2ed2146101385780632fbe584714610156575b600080fd5b6101186103a2565b005b61012261046f565b6040518082815260200191505060405180910390f35b610140610475565b6040518082815260200191505060405180910390f35b6101826004803603602081101561016c57600080fd5b810190808035906020019092919050505061047b565b005b61018c610485565b6040518082815260200191505060405180910390f35b6101aa61048b565b005b6101b4610592565b604051808273ffffffffffffffffffffffffffffffffffffffff1673ffffffffffffffffffffffffffffffffffffffff16815260200191505060405180910390f35b6101fe6105b8565b005b610208610718565b6040518082815260200191505060405180910390f35b6102606004803603602081101561023457600080fd5b81019080803573ffffffffffffffffffffffffffffffffffffffff16906020019092919050505061071e565b005b61026a610762565b6040518082815260200191505060405180910390f35b610288610768565b604051808273ffffffffffffffffffffffffffffffffffffffff1673ffffffffffffffffffffffffffffffffffffffff16815260200191505060405180910390f35b6102f6600480360360208110156102e057600080fd5b810190808035906020019092919050505061078e565b005b61033a6004803603602081101561030e57600080fd5b81019080803573ffffffffffffffffffffffffffffffffffffffff169060200190929190505050610798565b005b6103446107dc565b005b6103726004803603602081101561035c57600080fd5b81019080803590602001909291905050506108a9565b005b6103a06004803603602081101561038a57600080fd5b81019080803590602001909291905050506108b3565b005b600360009054906101000a900473ffffffffffffffffffffffffffffffffffffffff1673ffffffffffffffffffffffffffffffffffffffff163373ffffffffffffffffffffffffffffffffffffffff1614610465576040517f08c379a000000000000000000000000000000000000000000000000000000000815260040180806020018281038252601a8152602001807f4f6e6c792070726f6a65637420636f6e74726163742063616e2e00000000000081525060200191505060405180910390fd5b6003600281905550565b60095481565b60025481565b80600a8190555050565b600a5481565b600460009054906101000a900473ffffffffffffffffffffffffffffffffffffffff1673ffffffffffffffffffffffffffffffffffffffff163373ffffffffffffffffffffffffffffffffffffffff1614806105345750600360009054906101000a900473ffffffffffffffffffffffffffffffffffffffff1673ffffffffffffffffffffffffffffffffffffffff163373ffffffffffffffffffffffffffffffffffffffff16145b610589576040517f08c379a00000000000000000000000000000000000000000000000000000000081526004018080602001828103825260248152602001806108be6024913960400191505060405180910390fd5b60028081905550565b600460009054906101000a900473ffffffffffffffffffffffffffffffffffffffff1681565b600460009054906101000a900473ffffffffffffffffffffffffffffffffffffffff1673ffffffffffffffffffffffffffffffffffffffff163373ffffffffffffffffffffffffffffffffffffffff1614806106615750600560009054906101000a900473ffffffffffffffffffffffffffffffffffffffff1673ffffffffffffffffffffffffffffffffffffffff163373ffffffffffffffffffffffffffffffffffffffff16145b806106b95750600360009054906101000a900473ffffffffffffffffffffffffffffffffffffffff1673ffffffffffffffffffffffffffffffffffffffff163373ffffffffffffffffffffffffffffffffffffffff16145b61070e576040517f08c379a00000000000000000000000000000000000000000000000000000000081526004018080602001828103825260368152602001806108e26036913960400191505060405180910390fd5b6001600281905550565b60085481565b80600560006101000a81548173ffffffffffffffffffffffffffffffffffffffff021916908373ffffffffffffffffffffffffffffffffffffffff16021790555050565b600b5481565b600560009054906101000a900473ffffffffffffffffffffffffffffffffffffffff1681565b80600b8190555050565b80600460006101000a81548173ffffffffffffffffffffffffffffffffffffffff021916908373ffffffffffffffffffffffffffffffffffffffff16021790555050565b600360009054906101000a900473ffffffffffffffffffffffffffffffffffffffff1673ffffffffffffffffffffffffffffffffffffffff163373ffffffffffffffffffffffffffffffffffffffff161461089f576040517f08c379a000000000000000000000000000000000000000000000000000000000815260040180806020018281038252601a8152602001807f4f6e6c792070726f6a65637420636f6e74726163742063616e2e00000000000081525060200191505060405180910390fd5b6005600281905550565b8060098190555050565b806008819055505056fe4f6e6c792061737369676e6565206f722050726f6a6563742063616e207265736f6c76654f6e6c79205461736b20776f726b657273206f722050726f6a65637420636f6e74726163742063616e20616363657074207461736b73a2646970667358221220d05f94199399ddc45e1b42e20cf68aeee11cac75bb67df356bc32a4a2271247064736f6c634300060200334f6e6c792050726f6a656374204f776e65722063616e2077697468647261772066756e64732c20666f7220746865206d6f6d656e744f6e6c792041737369676e65652063616e207265736f6c7665207461736b732c20616e64205461736b206d7573742062652061737369676e65644f6e6c792041737369676e6565206f72204f7261636c652063616e20736574207461736b73204f6e20486f6c644f6e6c792050726f6a656374204f776e65722063616e20636865636b20746865206275646765742c20666f7220746865206d6f6d656e744f6e6c79204f7261636c65206f722041737369676e65652063616e206167726565206f6e207461736b732061737369676e656d656e74a26469706673582212204174901a6cf47a69a925970920427795e63dd28f5901bc8c0fa301654ccb248e64736f6c6343000602003360806040523480156200001157600080fd5b506040516200153938038062001539833981810160405260208110156200003757600080fd5b81019080805190602001909291905050506040518060400160405280600481526020017f44726f70000000000000000000000000000000000000000000000000000000008152506040518060400160405280600381526020017f44525000000000000000000000000000000000000000000000000000000000008152508160039080519060200190620000cc92919062000389565b508060049080519060200190620000e592919062000389565b506012600560006101000a81548160ff021916908360ff16021790555050506200011633826200011d60201b60201c565b5062000438565b600073ffffffffffffffffffffffffffffffffffffffff168273ffffffffffffffffffffffffffffffffffffffff161415620001c1576040517f08c379a000000000000000000000000000000000000000000000000000000000815260040180806020018281038252601f8152602001807f45524332303a206d696e7420746f20746865207a65726f20616464726573730081525060200191505060405180910390fd5b620001d560008383620002fb60201b60201c565b620001f1816002546200030060201b62000f2d1790919060201c565b6002819055506200024f816000808573ffffffffffffffffffffffffffffffffffffffff1673ffffffffffffffffffffffffffffffffffffffff168152602001908152602001600020546200030060201b62000f2d1790919060201c565b6000808473ffffffffffffffffffffffffffffffffffffffff1673ffffffffffffffffffffffffffffffffffffffff168152602001908152602001600020819055508173ffffffffffffffffffffffffffffffffffffffff16600073ffffffffffffffffffffffffffffffffffffffff167fddf252ad1be2c89b69c2b068fc378daa952ba7f163c4a11628f55a4df523b3ef836040518082815260200191505060405180910390a35050565b505050565b6000808284019050838110156200037f576040517f08c379a000000000000000000000000000000000000000000000000000000000815260040180806020018281038252601b8152602001807f536166654d6174683a206164646974696f6e206f766572666c6f77000000000081525060200191505060405180910390fd5b8091505092915050565b828054600181600116156101000203166002900490600052602060002090601f016020900481019282601f10620003cc57805160ff1916838001178555620003fd565b82800160010185558215620003fd579182015b82811115620003fc578251825591602001919060010190620003df565b5b5090506200040c919062000410565b5090565b6200043591905b808211156200043157600081600090555060010162000417565b5090565b90565b6110f180620004486000396000f3fe608060405234801561001057600080fd5b50600436106100a95760003560e01c80633950935111610071578063395093511461025f57806370a08231146102c557806395d89b411461031d578063a457c2d7146103a0578063a9059cbb14610406578063dd62ed3e1461046c576100a9565b806306fdde03146100ae578063095ea7b31461013157806318160ddd1461019757806323b872dd146101b5578063313ce5671461023b575b600080fd5b6100b66104e4565b6040518080602001828103825283818151815260200191508051906020019080838360005b838110156100f65780820151818401526020810190506100db565b50505050905090810190601f1680156101235780820380516001836020036101000a031916815260200191505b509250505060405180910390f35b61017d6004803603604081101561014757600080fd5b81019080803573ffffffffffffffffffffffffffffffffffffffff16906020019092919080359060200190929190505050610586565b604051808215151515815260200191505060405180910390f35b61019f6105a4565b6040518082815260200191505060405180910390f35b610221600480360360608110156101cb57600080fd5b81019080803573ffffffffffffffffffffffffffffffffffffffff169060200190929190803573ffffffffffffffffffffffffffffffffffffffff169060200190929190803590602001909291905050506105ae565b604051808215151515815260200191505060405180910390f35b610243610687565b604051808260ff1660ff16815260200191505060405180910390f35b6102ab6004803603604081101561027557600080fd5b81019080803573ffffffffffffffffffffffffffffffffffffffff1690602001909291908035906020019092919050505061069e565b604051808215151515815260200191505060405180910390f35b610307600480360360208110156102db57600080fd5b81019080803573ffffffffffffffffffffffffffffffffffffffff169060200190929190505050610751565b6040518082815260200191505060405180910390f35b610325610799565b6040518080602001828103825283818151815260200191508051906020019080838360005b8381101561036557808201518184015260208101905061034a565b50505050905090810190601f1680156103925780820380516001836020036101000a031916815260200191505b509250505060405180910390f35b6103ec600480360360408110156103b657600080fd5b81019080803573ffffffffffffffffffffffffffffffffffffffff1690602001909291908035906020019092919050505061083b565b604051808215151515815260200191505060405180910390f35b6104526004803603604081101561041c57600080fd5b81019080803573ffffffffffffffffffffffffffffffffffffffff16906020019092919080359060200190929190505050610908565b604051808215151515815260200191505060405180910390f35b6104ce6004803603604081101561048257600080fd5b81019080803573ffffffffffffffffffffffffffffffffffffffff169060200190929190803573ffffffffffffffffffffffffffffffffffffffff169060200190929190505050610926565b6040518082815260200191505060405180910390f35b606060038054600181600116156101000203166002900480601f01602080910402602001604051908101604052809291908181526020018280546001816001161561010002031660029004801561057c5780601f106105515761010080835404028352916020019161057c565b820191906000526020600020905b81548152906001019060200180831161055f57829003601f168201915b5050505050905090565b600061059a6105936109ad565b84846109b5565b6001905092915050565b6000600254905090565b60006105bb848484610bac565b61067c846105c76109ad565b6106778560405180606001604052806028815260200161102660289139600160008b73ffffffffffffffffffffffffffffffffffffffff1673ffffffffffffffffffffffffffffffffffffffff168152602001908152602001600020600061062d6109ad565b73ffffffffffffffffffffffffffffffffffffffff1673ffffffffffffffffffffffffffffffffffffffff16815260200190815260200160002054610e6d9092919063ffffffff16565b6109b5565b600190509392505050565b6000600560009054906101000a900460ff16905090565b60006107476106ab6109ad565b8461074285600160006106bc6109ad565b73ffffffffffffffffffffffffffffffffffffffff1673ffffffffffffffffffffffffffffffffffffffff16815260200190815260200160002060008973ffffffffffffffffffffffffffffffffffffffff1673ffffffffffffffffffffffffffffffffffffffff16815260200190815260200160002054610f2d90919063ffffffff16565b6109b5565b6001905092915050565b60008060008373ffffffffffffffffffffffffffffffffffffffff1673ffffffffffffffffffffffffffffffffffffffff168152602001908152602001600020549050919050565b606060048054600181600116156101000203166002900480601f0160208091040260200160405190810160405280929190818152602001828054600181600116156101000203166002900480156108315780601f1061080657610100808354040283529160200191610831565b820191906000526020600020905b81548152906001019060200180831161081457829003601f168201915b5050505050905090565b60006108fe6108486109ad565b846108f98560405180606001604052806025815260200161109760259139600160006108726109ad565b73ffffffffffffffffffffffffffffffffffffffff1673ffffffffffffffffffffffffffffffffffffffff16815260200190815260200160002060008a73ffffffffffffffffffffffffffffffffffffffff1673ffffffffffffffffffffffffffffffffffffffff16815260200190815260200160002054610e6d9092919063ffffffff16565b6109b5565b6001905092915050565b600061091c6109156109ad565b8484610bac565b6001905092915050565b6000600160008473ffffffffffffffffffffffffffffffffffffffff1673ffffffffffffffffffffffffffffffffffffffff16815260200190815260200160002060008373ffffffffffffffffffffffffffffffffffffffff1673ffffffffffffffffffffffffffffffffffffffff16815260200190815260200160002054905092915050565b600033905090565b600073ffffffffffffffffffffffffffffffffffffffff168373ffffffffffffffffffffffffffffffffffffffff161415610a3b576040517f08c379a00000000000000000000000000000000000000000000000000000000081526004018080602001828103825260248152602001806110736024913960400191505060405180910390fd5b600073ffffffffffffffffffffffffffffffffffffffff168273ffffffffffffffffffffffffffffffffffffffff161415610ac1576040517f08c379a0000000000000000000000000000000000000000000000000000000008152600401808060200182810382526022815260200180610fde6022913960400191505060405180910390fd5b80600160008573ffffffffffffffffffffffffffffffffffffffff1673ffffffffffffffffffffffffffffffffffffffff16815260200190815260200160002060008473ffffffffffffffffffffffffffffffffffffffff1673ffffffffffffffffffffffffffffffffffffffff168152602001908152602001600020819055508173ffffffffffffffffffffffffffffffffffffffff168373ffffffffffffffffffffffffffffffffffffffff167f8c5be1e5ebec7d5bd14f71427d1e84f3dd0314c0f7b2291e5b200ac8c7c3b925836040518082815260200191505060405180910390a3505050565b600073ffffffffffffffffffffffffffffffffffffffff168373ffffffffffffffffffffffffffffffffffffffff161415610c32576040517f08c379a000000000000000000000000000000000000000000000000000000000815260040180806020018281038252602581526020018061104e6025913960400191505060405180910390fd5b600073ffffffffffffffffffffffffffffffffffffffff168273ffffffffffffffffffffffffffffffffffffffff161415610cb8576040517f08c379a0000000000000000000000000000000000000000000000000000000008152600401808060200182810382526023815260200180610fbb6023913960400191505060405180910390fd5b610cc3838383610fb5565b610d2e81604051806060016040528060268152602001611000602691396000808773ffffffffffffffffffffffffffffffffffffffff1673ffffffffffffffffffffffffffffffffffffffff16815260200190815260200160002054610e6d9092919063ffffffff16565b6000808573ffffffffffffffffffffffffffffffffffffffff1673ffffffffffffffffffffffffffffffffffffffff16815260200190815260200160002081905550610dc1816000808573ffffffffffffffffffffffffffffffffffffffff1673ffffffffffffffffffffffffffffffffffffffff16815260200190815260200160002054610f2d90919063ffffffff16565b6000808473ffffffffffffffffffffffffffffffffffffffff1673ffffffffffffffffffffffffffffffffffffffff168152602001908152602001600020819055508173ffffffffffffffffffffffffffffffffffffffff168373ffffffffffffffffffffffffffffffffffffffff167fddf252ad1be2c89b69c2b068fc378daa952ba7f163c4a11628f55a4df523b3ef836040518082815260200191505060405180910390a3505050565b6000838311158290610f1a576040517f08c379a00000000000000000000000000000000000000000000000000000000081526004018080602001828103825283818151815260200191508051906020019080838360005b83811015610edf578082015181840152602081019050610ec4565b50505050905090810190601f168015610f0c5780820380516001836020036101000a031916815260200191505b509250505060405180910390fd5b5060008385039050809150509392505050565b600080828401905083811015610fab576040517f08c379a000000000000000000000000000000000000000000000000000000000815260040180806020018281038252601b8152602001807f536166654d6174683a206164646974696f6e206f766572666c6f77000000000081525060200191505060405180910390fd5b8091505092915050565b50505056fe45524332303a207472616e7366657220746f20746865207a65726f206164647265737345524332303a20617070726f766520746f20746865207a65726f206164647265737345524332303a207472616e7366657220616d6f756e7420657863656564732062616c616e636545524332303a207472616e7366657220616d6f756e74206578636565647320616c6c6f77616e636545524332303a207472616e736665722066726f6d20746865207a65726f206164647265737345524332303a20617070726f76652066726f6d20746865207a65726f206164647265737345524332303a2064656372656173656420616c6c6f77616e63652062656c6f77207a65726fa2646970667358221220b335dd0411b65b8def3541e4f4af97e8d61cf17c846298db90ac13141596969264736f6c63430006020033",
  "source": "// https://github.com/zupino/blockchain-pm\n\npragma solidity ^0.6.2;\n\nimport './Task.sol';\nimport './Drop.sol';\n\ncontract Project {\n\n\tDrop public drp;\n\n    mapping (uint => address) tasks;\n    mapping (address => uint) payroll;\n    uint[] taskIds;\n    address payable owner;\n    uint projectStatus;             // 0: new       1: Open     2: Closed\n    \n    event compensationReleased(address _to, uint _amount);\n    event fundsWithdrawn(address _to, uint _amount);\n\tevent taskAdded(uint _id, address _addr);\n\n\t// Task acceptance deposit for both Oracle and Assignee\n\tuint public defaultDeposit = 5;\n    \n\t// Ether are converted to DRP and assigned as prj budget\n    constructor() public payable {\n\t    owner = msg.sender;\n\t\tdrp = new Drop(msg.value);\n\t\t\n    }\n    \n    function getProjectBudgetEther() public view returns (uint) {\n        require(\n            msg.sender == owner,\n            \"Only Project Owner can check the budget, for the moment\"\n        );\n        \n        return address(this).balance;\n        \n    }\n\n\tfunction getProjectBudgetDrop() public view returns (uint) {\n\t\trequire(\n\t\t\tmsg.sender == owner,\n\t\t\t\"Only Project Owner can check the budget, for the moment\"\n\t\t);\n\t\t\n\t\treturn drp.balanceOf(address(this));\n\t}\n    \n    function withdrawProjectBudget() public {\n        require(\n            msg.sender == owner,\n            \"Only Project Owner can withdraw funds, for the moment\"\n        );\n        if (owner.send(address(this).balance)) {\n            emit fundsWithdrawn(owner, address(this).balance);    \n        } else {\n            revert();\n        }\n    }\n    \n    function addTask(string memory _title, uint _id) ownerOnly public {\n\t\tTask t = new Task(_title, address(this), _id);\n\n\t\tt.setDepositAssignee(defaultDeposit);\n\t\tt.setDepositOracle(defaultDeposit);\n\n\t\ttasks[_id] = address(t);\n\t\ttaskIds.push(_id);\n\n\t\temit taskAdded(_id, tasks[_id]);\n    }\n\n\tfunction setTaskAssignee(uint _id, address _assignee, uint _compensation) \n\t ownerOnly public {\n\t\tTask t = Task(address(tasks[_id]));\n\t\tt.setAssignee(_assignee);\n\t\tdrp.transfer(address(t), _compensation);\n\t\tt.setCompensationAssignee(_compensation);\n\t}\n\n\tfunction setTaskOracle(uint _id, address _oracle, uint _compensation)\n\townerOnly public {\n\t\tTask t = Task(address(address(tasks[_id])));\n\t\tt.setOracle(_oracle);\n\t\tdrp.transfer(address(t), _compensation);\n\t\tt.setCompensationOracle(_compensation);\n\t}\n\n    // Resolve project when all the project\n    // tasks are CLOSED, Oracle get payed\n    function resolveProject() ownerOnly public {\n\n\t\tTask t;\n\n        uint closedTask = 0;\n        uint totalPayout = 0;\n        \n        for(uint i=0; i<taskIds.length; i++){\n            t = Task(address(tasks[taskIds[i]]));\n\t\t\tif(t.status() == 3) {\n                closedTask = closedTask + 1;\n                totalPayout += t.compensationOracle();\n            }\n            \n        }\n        \n        if(closedTask == taskIds.length && totalPayout <= drp.balanceOf(address(this))) {\n            projectStatus = 2;\n            for(uint i=0; i<taskIds.length; i++){\n                t = Task(address(tasks[taskIds[i]]));\n\t\t\t\tpayroll[t.oracle()] += t.compensationOracle();\n            }\n        }\n    }\n    \n    // TODO refactor\n    function withdrawTask() public {\n        uint amount = payroll[msg.sender];\n        payroll[msg.sender] = 0;\n        msg.sender.transfer(amount);\n    }\n\n    function startWorkingOnTask(uint _id) public payable {\n        Task t = Task(address(tasks[_id]));\n\t\trequire(\n            (msg.sender == t.oracle() || msg.sender == t.assignee()),\n            \"Only Oracle or Assignee can agree on tasks assignement\"\n        );\n        \n        if (msg.sender == t.oracle()) {\n            if(msg.value == t.depositOracle()) {\n                t.setDepositOracle( 0 );\n            } else {\n                revert();\n            }\n            \n        } else { // given the \"require\" assumption, this is Assignee\n            if(msg.value == t.depositAssignee()) {\n                t.setDepositAssignee( 0 );\n            } else {\n                revert();\n            }\n        }\n        \n        if(((t.depositAssignee() + t.depositOracle()) == 0)\n            && t.status() == 0\n            ) {\n            t.openTask();\n        }\n        \n    }\n    \n    // only Oracle or Owner can change the status\n    function resolveTask(uint _id) public {\n        Task t = Task(address(tasks[_id]));\n\t\trequire(\n            (msg.sender == t.assignee() && t.status() == 1),\n            \"Only Assignee can resolve tasks, and Task must be assigned\"\n        );\n        t.resolveTask();\n    }\n    \n    // only Oracle or Owner can change the status\n    function closeTask(uint _id) public {\n\t\tTask t = Task(address(tasks[_id]));\n        require(\n            (msg.sender == t.oracle() && t.status() == 2),\n            \"Only Oracle can close tasks\"\n        );\n\t\trequire(t.status() == 2, \"Tasks must be Resolved\");\n\n        t.closeTask();\n    \tdrp.transfer(t.assignee(), t.compensationAssignee());\n\t}\n    \n    function setStatusOnHold(uint _id) public {\n\t\tTask t = Task(address(tasks[_id]));\n        require(\n            msg.sender == t.assignee() || msg.sender == t.oracle(),\n            \"Only Assignee or Oracle can set tasks On Hold\"\n        );\n        \n        t.holdTask();\n    }\n    \n    function cancelTask(uint _id) public {\n\t\t// TBD        \n    }\n\n\t// Modifiers\n\n\tmodifier ownerOnly() {\n\t\trequire(msg.sender == owner, \"Only owner can do this\");\n\t\t_;\n\t}\n\n\t// DEBUG convenience functions\n\n\tfunction getTaskAddress(uint _id) public view returns (address) {\n\t\treturn tasks[_id];\n\t}\n\n\tfunction getDropAddress() public view returns (address) {\n\t\treturn address(drp);\n\t}\n}\n\n",
  "sourcePath": "/home/node/blockchain-pm/contracts/Project.sol",
  "compiler": {
    "name": "solc",
    "version": "0.6.2+commit.bacdbe57.Emscripten.clang"
  },
  "schemaVersion": "3.2.0",
  "updatedAt": "2020-06-13T23:04:20.988Z",
  "devdoc": {
    "methods": {}
  },
  "userdoc": {
    "methods": {}
  }
}