{
  "contractName": "Project",
  "abi": [
    {
      "inputs": [],
      "payable": true,
      "stateMutability": "payable",
      "type": "constructor"
    },
    {
      "anonymous": false,
      "inputs": [
        {
          "indexed": false,
          "internalType": "address",
          "name": "_to",
          "type": "address"
        },
        {
          "indexed": false,
          "internalType": "uint256",
          "name": "_amount",
          "type": "uint256"
        }
      ],
      "name": "compensationReleased",
      "type": "event"
    },
    {
      "anonymous": false,
      "inputs": [
        {
          "indexed": false,
          "internalType": "address",
          "name": "_to",
          "type": "address"
        },
        {
          "indexed": false,
          "internalType": "uint256",
          "name": "_amount",
          "type": "uint256"
        }
      ],
      "name": "fundsWithdrawn",
      "type": "event"
    },
    {
      "constant": true,
      "inputs": [],
      "name": "myString",
      "outputs": [
        {
          "internalType": "string",
          "name": "",
          "type": "string"
        }
      ],
      "payable": false,
      "stateMutability": "view",
      "type": "function"
    },
    {
      "constant": false,
      "inputs": [
        {
          "internalType": "string",
          "name": "x",
          "type": "string"
        }
      ],
      "name": "set",
      "outputs": [],
      "payable": false,
      "stateMutability": "nonpayable",
      "type": "function"
    },
    {
      "constant": true,
      "inputs": [],
      "name": "getProject",
      "outputs": [
        {
          "internalType": "contract Project",
          "name": "",
          "type": "address"
        }
      ],
      "payable": false,
      "stateMutability": "view",
      "type": "function"
    },
    {
      "constant": true,
      "inputs": [],
      "name": "getProjectBudget",
      "outputs": [
        {
          "internalType": "uint256",
          "name": "",
          "type": "uint256"
        }
      ],
      "payable": false,
      "stateMutability": "view",
      "type": "function"
    },
    {
      "constant": false,
      "inputs": [],
      "name": "withdrawProjectBudget",
      "outputs": [],
      "payable": false,
      "stateMutability": "nonpayable",
      "type": "function"
    },
    {
      "constant": false,
      "inputs": [
        {
          "internalType": "uint256",
          "name": "_id",
          "type": "uint256"
        },
        {
          "internalType": "uint256",
          "name": "_compensationAssignee",
          "type": "uint256"
        },
        {
          "internalType": "address",
          "name": "_oracle",
          "type": "address"
        },
        {
          "internalType": "uint256",
          "name": "_deadlineAssignment",
          "type": "uint256"
        },
        {
          "internalType": "uint256",
          "name": "_deadlineDelivery",
          "type": "uint256"
        },
        {
          "internalType": "address",
          "name": "_assignee",
          "type": "address"
        },
        {
          "internalType": "uint256",
          "name": "_compensationOracle",
          "type": "uint256"
        },
        {
          "internalType": "uint256",
          "name": "_depositOracle",
          "type": "uint256"
        },
        {
          "internalType": "uint256",
          "name": "_depositAssignee",
          "type": "uint256"
        }
      ],
      "name": "addTask",
      "outputs": [],
      "payable": false,
      "stateMutability": "nonpayable",
      "type": "function"
    },
    {
      "constant": false,
      "inputs": [],
      "name": "resolveProject",
      "outputs": [],
      "payable": false,
      "stateMutability": "nonpayable",
      "type": "function"
    },
    {
      "constant": false,
      "inputs": [],
      "name": "withdrawTask",
      "outputs": [],
      "payable": false,
      "stateMutability": "nonpayable",
      "type": "function"
    },
    {
      "constant": false,
      "inputs": [
        {
          "internalType": "uint256",
          "name": "_id",
          "type": "uint256"
        }
      ],
      "name": "startWorkingOnTask",
      "outputs": [],
      "payable": true,
      "stateMutability": "payable",
      "type": "function"
    },
    {
      "constant": false,
      "inputs": [
        {
          "internalType": "uint256",
          "name": "_id",
          "type": "uint256"
        }
      ],
      "name": "resolveTask",
      "outputs": [],
      "payable": false,
      "stateMutability": "nonpayable",
      "type": "function"
    },
    {
      "constant": false,
      "inputs": [
        {
          "internalType": "uint256",
          "name": "_id",
          "type": "uint256"
        }
      ],
      "name": "closeTask",
      "outputs": [],
      "payable": false,
      "stateMutability": "nonpayable",
      "type": "function"
    },
    {
      "constant": false,
      "inputs": [
        {
          "internalType": "uint256",
          "name": "_id",
          "type": "uint256"
        }
      ],
      "name": "setStatusOnHold",
      "outputs": [],
      "payable": false,
      "stateMutability": "nonpayable",
      "type": "function"
    },
    {
      "constant": false,
      "inputs": [
        {
          "internalType": "uint256",
          "name": "_id",
          "type": "uint256"
        }
      ],
      "name": "cancelTask",
      "outputs": [],
      "payable": false,
      "stateMutability": "nonpayable",
      "type": "function"
    }
  ],
  "bytecode": "0x60806040526040518060400160405280600c81526020017f4772616e6465205a756e69780000000000000000000000000000000000000000815250600090805190602001906200005192919062000099565b5033600460006101000a81548173ffffffffffffffffffffffffffffffffffffffff021916908373ffffffffffffffffffffffffffffffffffffffff16021790555062000148565b828054600181600116156101000203166002900490600052602060002090601f016020900481019282601f10620000dc57805160ff19168380011785556200010d565b828001600101855582156200010d579182015b828111156200010c578251825591602001919060010190620000ef565b5b5090506200011c919062000120565b5090565b6200014591905b808211156200014157600081600090555060010162000127565b5090565b90565b61181180620001586000396000f3fe6080604052600436106100c25760003560e01c80636e57b7001161007f5780637eec20a8116100595780637eec20a814610414578063920ead3a1461044f578063f930507914610466578063ffe392e11461047d576100c2565b80636e57b700146102da5780637101e73b1461033157806374a32db0146103e9576100c2565b80631201dfc6146100c757806324cf41c514610102578063456d908e14610119578063492bfa18146101545780634ed3885e146101e4578063525686d6146102ac575b600080fd5b3480156100d357600080fd5b50610100600480360360208110156100ea57600080fd5b81019080803590602001909291905050506104b8565b005b34801561010e57600080fd5b506101176106c3565b005b34801561012557600080fd5b506101526004803603602081101561013c57600080fd5b810190808035906020019092919050505061085e565b005b34801561016057600080fd5b5061016961097f565b6040518080602001828103825283818151815260200191508051906020019080838360005b838110156101a957808201518184015260208101905061018e565b50505050905090810190601f1680156101d65780820380516001836020036101000a031916815260200191505b509250505060405180910390f35b3480156101f057600080fd5b506102aa6004803603602081101561020757600080fd5b810190808035906020019064010000000081111561022457600080fd5b82018360208201111561023657600080fd5b8035906020019184600183028401116401000000008311171561025857600080fd5b91908080601f016020809104026020016040519081016040528093929190818152602001838380828437600081840152601f19601f820116905080830192505050505050509192919290505050610a1d565b005b6102d8600480360360208110156102c257600080fd5b8101908080359060200190929190505050610a37565b005b3480156102e657600080fd5b506102ef610d04565b604051808273ffffffffffffffffffffffffffffffffffffffff1673ffffffffffffffffffffffffffffffffffffffff16815260200191505060405180910390f35b34801561033d57600080fd5b506103e7600480360361012081101561035557600080fd5b810190808035906020019092919080359060200190929190803573ffffffffffffffffffffffffffffffffffffffff1690602001909291908035906020019092919080359060200190929190803573ffffffffffffffffffffffffffffffffffffffff169060200190929190803590602001909291908035906020019092919080359060200190929190505050610db2565b005b3480156103f557600080fd5b506103fe61105c565b6040518082815260200191505060405180910390f35b34801561042057600080fd5b5061044d6004803603602081101561043757600080fd5b810190808035906020019092919050505061110a565b005b34801561045b57600080fd5b5061046461110d565b005b34801561047257600080fd5b5061047b6111e0565b005b34801561048957600080fd5b506104b6600480360360208110156104a057600080fd5b8101908080359060200190929190505050611440565b005b6001600082815260200190815260200160002060000160019054906101000a900473ffffffffffffffffffffffffffffffffffffffff1673ffffffffffffffffffffffffffffffffffffffff163373ffffffffffffffffffffffffffffffffffffffff1614801561054f575060026001600083815260200190815260200160002060000160009054906101000a900460000b60000b145b6105a4576040517f08c379a00000000000000000000000000000000000000000000000000000000081526004018080602001828103825260368152602001806117716036913960400191505060405180910390fd5b600554600160008381526020019081526020016000206005015410156106bb5760036001600083815260200190815260200160002060000160006101000a81548160ff021916908360000b60ff1602179055506001600082815260200190815260200160002060050154600260006001600085815260200190815260200160002060010160009054906101000a900473ffffffffffffffffffffffffffffffffffffffff1673ffffffffffffffffffffffffffffffffffffffff1673ffffffffffffffffffffffffffffffffffffffff1681526020019081526020016000206000828254019250508190555060016000828152602001908152602001600020600501546005600082825403925050819055506106c0565b600080fd5b50565b600460009054906101000a900473ffffffffffffffffffffffffffffffffffffffff1673ffffffffffffffffffffffffffffffffffffffff163373ffffffffffffffffffffffffffffffffffffffff1614610769576040517f08c379a00000000000000000000000000000000000000000000000000000000081526004018080602001828103825260358152602001806116426035913960400191505060405180910390fd5b600460009054906101000a900473ffffffffffffffffffffffffffffffffffffffff1673ffffffffffffffffffffffffffffffffffffffff166108fc479081150290604051600060405180830381858888f1935050505015610857577f8a43c200a722669df503c8997c4ae4af96d8849cba45c39bccf948d45223e770600460009054906101000a900473ffffffffffffffffffffffffffffffffffffffff1647604051808373ffffffffffffffffffffffffffffffffffffffff1673ffffffffffffffffffffffffffffffffffffffff1681526020018281526020019250505060405180910390a161085c565b600080fd5b565b6001600082815260200190815260200160002060010160009054906101000a900473ffffffffffffffffffffffffffffffffffffffff1673ffffffffffffffffffffffffffffffffffffffff163373ffffffffffffffffffffffffffffffffffffffff161480156108f45750600180600083815260200190815260200160002060000160009054906101000a900460000b60000b145b610949576040517f08c379a000000000000000000000000000000000000000000000000000000000815260040180806020018281038252603a815260200180611677603a913960400191505060405180910390fd5b60026001600083815260200190815260200160002060000160006101000a81548160ff021916908360000b60ff16021790555050565b60008054600181600116156101000203166002900480601f016020809104026020016040519081016040528092919081815260200182805460018160011615610100020316600290048015610a155780601f106109ea57610100808354040283529160200191610a15565b820191906000526020600020905b8154815290600101906020018083116109f857829003601f168201915b505050505081565b8060009080519060200190610a3392919061159c565b5050565b6001600082815260200190815260200160002060000160019054906101000a900473ffffffffffffffffffffffffffffffffffffffff1673ffffffffffffffffffffffffffffffffffffffff163373ffffffffffffffffffffffffffffffffffffffff161480610b0857506001600082815260200190815260200160002060010160009054906101000a900473ffffffffffffffffffffffffffffffffffffffff1673ffffffffffffffffffffffffffffffffffffffff163373ffffffffffffffffffffffffffffffffffffffff16145b610b5d576040517f08c379a00000000000000000000000000000000000000000000000000000000081526004018080602001828103825260368152602001806117a76036913960400191505060405180910390fd5b6001600082815260200190815260200160002060000160019054906101000a900473ffffffffffffffffffffffffffffffffffffffff1673ffffffffffffffffffffffffffffffffffffffff163373ffffffffffffffffffffffffffffffffffffffff161415610c18576001600082815260200190815260200160002060060154341415610c0e57346001600083815260200190815260200160002060060160008282540392505081905550610c13565b600080fd5b610c65565b6001600082815260200190815260200160002060070154341415610c5f57346001600083815260200190815260200160002060070160008282540392505081905550610c64565b600080fd5b5b60006001600083815260200190815260200160002060060154600160008481526020019081526020016000206007015401148015610cc9575060006001600083815260200190815260200160002060000160009054906101000a900460000b60000b145b15610d0157600180600083815260200190815260200160002060000160006101000a81548160ff021916908360000b60ff1602179055505b50565b6000600460009054906101000a900473ffffffffffffffffffffffffffffffffffffffff1673ffffffffffffffffffffffffffffffffffffffff163373ffffffffffffffffffffffffffffffffffffffff1614610dac576040517f08c379a000000000000000000000000000000000000000000000000000000000815260040180806020018281038252603681526020018061173b6036913960400191505060405180910390fd5b30905090565b600460009054906101000a900473ffffffffffffffffffffffffffffffffffffffff1673ffffffffffffffffffffffffffffffffffffffff163373ffffffffffffffffffffffffffffffffffffffff1614610e75576040517f08c379a00000000000000000000000000000000000000000000000000000000081526004018080602001828103825260208152602001807f4f6e6c792050726f6a656374204f776e65722063616e20616464207461736b7381525060200191505060405180910390fd5b4286111580610e845750428511155b80610e925750600554838901115b15610e9c57600080fd5b6040518061012001604052806000800b81526020018873ffffffffffffffffffffffffffffffffffffffff1681526020018573ffffffffffffffffffffffffffffffffffffffff16815260200187815260200186815260200184815260200189815260200183815260200182815250600160008b815260200190815260200160002060008201518160000160006101000a81548160ff021916908360000b60ff16021790555060208201518160000160016101000a81548173ffffffffffffffffffffffffffffffffffffffff021916908373ffffffffffffffffffffffffffffffffffffffff16021790555060408201518160010160006101000a81548173ffffffffffffffffffffffffffffffffffffffff021916908373ffffffffffffffffffffffffffffffffffffffff160217905550606082015181600201556080820151816003015560a0820151816004015560c0820151816005015560e0820151816006015561010082015181600701559050506003899080600181540180825580915050906001820390600052602060002001600090919290919091505550828801600554036005819055506001600681905550505050505050505050565b6000600460009054906101000a900473ffffffffffffffffffffffffffffffffffffffff1673ffffffffffffffffffffffffffffffffffffffff163373ffffffffffffffffffffffffffffffffffffffff1614611104576040517f08c379a00000000000000000000000000000000000000000000000000000000081526004018080602001828103825260378152602001806117046037913960400191505060405180910390fd5b47905090565b50565b6000600260003373ffffffffffffffffffffffffffffffffffffffff1673ffffffffffffffffffffffffffffffffffffffff1681526020019081526020016000205490506000600260003373ffffffffffffffffffffffffffffffffffffffff1673ffffffffffffffffffffffffffffffffffffffff168152602001908152602001600020819055503373ffffffffffffffffffffffffffffffffffffffff166108fc829081150290604051600060405180830381858888f193505050501580156111dc573d6000803e3d6000fd5b5050565b600460009054906101000a900473ffffffffffffffffffffffffffffffffffffffff1673ffffffffffffffffffffffffffffffffffffffff163373ffffffffffffffffffffffffffffffffffffffff1614611286576040517f08c379a00000000000000000000000000000000000000000000000000000000081526004018080602001828103825260268152602001806116b16026913960400191505060405180910390fd5b6000809050600080905060008090505b60038054905081101561132f57600360016000600384815481106112b657fe5b9060005260206000200154815260200190815260200160002060000160009054906101000a900460000b60000b141561132257600183019250600160006003838154811061130057fe5b9060005260206000200154815260200190815260200160002060040154820191505b8080600101915050611296565b506003805490508214801561134657506005548111155b1561143c57600260068190555060008090505b60038054905081101561143a57600160006003838154811061137757fe5b90600052602060002001548152602001908152602001600020600401546002600060016000600386815481106113a957fe5b9060005260206000200154815260200190815260200160002060000160019054906101000a900473ffffffffffffffffffffffffffffffffffffffff1673ffffffffffffffffffffffffffffffffffffffff1673ffffffffffffffffffffffffffffffffffffffff168152602001908152602001600020600082825401925050819055508080600101915050611359565b505b5050565b6001600082815260200190815260200160002060010160009054906101000a900473ffffffffffffffffffffffffffffffffffffffff1673ffffffffffffffffffffffffffffffffffffffff163373ffffffffffffffffffffffffffffffffffffffff16148061151157506001600082815260200190815260200160002060000160019054906101000a900473ffffffffffffffffffffffffffffffffffffffff1673ffffffffffffffffffffffffffffffffffffffff163373ffffffffffffffffffffffffffffffffffffffff16145b611566576040517f08c379a000000000000000000000000000000000000000000000000000000000815260040180806020018281038252602d8152602001806116d7602d913960400191505060405180910390fd5b60056001600083815260200190815260200160002060000160006101000a81548160ff021916908360000b60ff16021790555050565b828054600181600116156101000203166002900490600052602060002090601f016020900481019282601f106115dd57805160ff191683800117855561160b565b8280016001018555821561160b579182015b8281111561160a5782518255916020019190600101906115ef565b5b509050611618919061161c565b5090565b61163e91905b8082111561163a576000816000905550600101611622565b5090565b9056fe4f6e6c792050726f6a656374204f776e65722063616e2077697468647261772066756e64732c20666f7220746865206d6f6d656e744f6e6c792041737369676e65652063616e207265736f6c7665207461736b732c20616e64205461736b206d7573742062652061737369676e65644f6e6c792050726f6a656374204f776e65722063616e207265736f6c76652070726f6a6563744f6e6c792041737369676e6565206f72204f7261636c652063616e20736574207461736b73204f6e20486f6c644f6e6c792050726f6a656374204f776e65722063616e20636865636b20746865206275646765742c20666f7220746865206d6f6d656e744f6e6c792050726f6a656374204f776e6572206765742070726f6a6563742064657461696c732c20666f7220746865206d6f6d656e744f6e6c79204f7261636c652063616e20636c6f7365207461736b732c20616e64205461736b206d757374206265205265736f6c7665644f6e6c79204f7261636c65206f722041737369676e65652063616e206167726565206f6e207461736b732061737369676e656d656e74a265627a7a723158201445c9bc117397ce109c438ddb8cecfc75790371e0a92dbad7375ca8c57da34664736f6c63430005100032",
  "source": "// https://github.com/zupino/blockchain-pm\n\npragma solidity ^0.5.16;\n\ncontract Project {\n\n      string public myString = \"Grande Zunix\";\n\n      function set(string memory x) public {\n        myString = x;\n      }\n    \n    struct Task {\n        int8 status;                // 0: new           3: closed\n                                    // 1: accepted      4: cancelled\n                                    // 2: resolved      5: onhold\n        address oracle;             // has authority to change status\n        address assignee;           // has accountability on task, can start Tasks\n        uint deadlineAssignment;    // unix epoch timestamp of deadline\n        uint deadlineDelivery;      // unix epoch timestamp of delivery\n        uint compensationOracle;\n        uint compensationAssignee;  // estimated compensation\n        uint depositOracle;         // Oracle lock a deposit until task is completed\n        uint depositAssignee;       // Assignee too\n    }\n\n    mapping (uint => Task) tasks;\n    mapping (address => uint) payroll;\n    uint[] taskIds;\n    address payable owner;\n    uint projectBudget;\n    uint projectStatus;             // 0: new       1: Open     2: Closed\n    \n    event compensationReleased(address _to, uint _amount);\n    event fundsWithdrawn(address _to, uint _amount);\n    \n    constructor() public payable {\n        owner = msg.sender;\n        //addProjectBudget(msg.value);\n    }\n    \n    // for debug, maybe not needed\n    function getProject() public view returns (Project) {\n        require(\n            msg.sender == owner,\n            \"Only Project Owner get project details, for the moment\"\n        );\n        return this;\n    }\n    \n    // TODO So far only constructor can add funds\n    function addProjectBudget(uint _amount) internal {\n        require(\n            (msg.sender == owner && msg.value > 0),\n            \"Only Project Owner can add budget, for the moment\"\n        );\n        \n        /*\n        If I get it right, no need to process\n        the amount, unless we want to keep it\n        tracked in a variable for convenience\n        */\n        \n        projectBudget += _amount;\n    }\n    \n    function getProjectBudget() public view returns (uint) {\n        require(\n            msg.sender == owner,\n            \"Only Project Owner can check the budget, for the moment\"\n        );\n        \n        return address(this).balance;\n        \n    }\n    \n    function withdrawProjectBudget() public {\n        require(\n            msg.sender == owner,\n            \"Only Project Owner can withdraw funds, for the moment\"\n        );\n        if (owner.send(address(this).balance)) {\n                emit fundsWithdrawn(owner, address(this).balance);    \n        } else {\n            revert();\n        }\n    }\n    \n    function addTask(\n                        uint _id, \n                        uint _compensationAssignee,\n                        address _oracle,\n                        uint _deadlineAssignment,\n                        uint _deadlineDelivery,\n                        address _assignee,\n                        uint _compensationOracle,\n                        uint _depositOracle,\n                        uint _depositAssignee\n                    ) public {\n        require(\n            msg.sender == owner,\n            \"Only Project Owner can add tasks\"\n        );\n        \n        if (\n            (\n                (_deadlineAssignment <= now) || (_deadlineDelivery <= now)\n            ) || \n            (\n                (_compensationAssignee + _compensationOracle) > projectBudget\n            )\n        ) {\n            revert();\n        }\n        else\n        {\n            tasks[_id] = Task( {\n                            compensationAssignee: _compensationAssignee,\n                            compensationOracle: _compensationOracle,\n                            oracle: _oracle,\n                            deadlineAssignment: _deadlineAssignment,\n                            deadlineDelivery: _deadlineDelivery,\n                            assignee: _assignee,\n                            depositOracle: _depositOracle,\n                            depositAssignee: _depositAssignee,\n                            status: 0\n                        });\n        \n            taskIds.push(_id);\n            projectBudget = projectBudget - (_compensationAssignee + _compensationOracle);\n            projectStatus = 1;\n        }\n            \n    }\n    // Resolve project happens when all the project\n    // tasks are CLOSED, and Oracle get payed\n    function resolveProject() public {\n        require(\n            msg.sender == owner,\n            \"Only Project Owner can resolve project\"\n        );\n        \n        uint closedTask = 0;\n        uint totalPayout = 0;\n        \n        for(uint i=0; i<taskIds.length; i++){\n            if(tasks[taskIds[i]].status == 3) {\n                closedTask = closedTask + 1;\n                totalPayout += tasks[taskIds[i]].compensationOracle;\n            }\n            \n        }\n        \n        if(closedTask == taskIds.length && totalPayout <= projectBudget) {\n            projectStatus = 2;\n            for(uint i=0; i<taskIds.length; i++){\n                payroll[tasks[taskIds[i]].oracle] += tasks[taskIds[i]].compensationOracle;\n            }\n        }\n    }\n    \n    \n    function withdrawTask() public {\n        uint amount = payroll[msg.sender];\n        payroll[msg.sender] = 0;\n        msg.sender.transfer(amount);\n    }\n\n    function startWorkingOnTask(uint _id) public payable {\n        require(\n            (msg.sender == tasks[_id].oracle || msg.sender == tasks[_id].assignee),\n            \"Only Oracle or Assignee can agree on tasks assignement\"\n        );\n        \n        if (msg.sender == tasks[_id].oracle) {\n            if(msg.value == tasks[_id].depositOracle) {\n                tasks[_id].depositOracle -= msg.value;\n            } else {\n                revert();\n            }\n            \n        } else { // given the \"require\" assumption, this is Assignee\n            if(msg.value == tasks[_id].depositAssignee) {\n                tasks[_id].depositAssignee -= msg.value;\n            } else {\n                revert();\n            }\n        }\n        \n        if(((tasks[_id].depositAssignee + tasks[_id].depositOracle) == 0)\n            && tasks[_id].status == 0\n            ) {\n            tasks[_id].status = 1;\n        }\n        \n    }\n    \n    // only Oracle or Owner can change the status\n    function resolveTask(uint _id) public {\n        require(\n            (msg.sender == tasks[_id].assignee && tasks[_id].status == 1),\n            \"Only Assignee can resolve tasks, and Task must be assigned\"\n        );\n        tasks[_id].status = 2;\n    }\n    \n    // only Oracle or Owner can change the status\n    function closeTask(uint _id) public {\n        require(\n            (msg.sender == tasks[_id].oracle && tasks[_id].status == 2),\n            \"Only Oracle can close tasks, and Task must be Resolved\"\n        );\n        // Check task current status and project balance\n        // TODO Clarify what is better, this.balance\n        // or our own state var\n        if(tasks[_id].compensationAssignee < projectBudget) {\n            tasks[_id].status = 3;\n            payroll[tasks[_id].assignee] += tasks[_id].compensationAssignee;\n            projectBudget -= tasks[_id].compensationAssignee;\n        } else {\n            revert();\n        }\n    }\n    \n    function setStatusOnHold(uint _id) public {\n        require(\n            msg.sender == tasks[_id].assignee || msg.sender == tasks[_id].oracle,\n            \"Only Assignee or Oracle can set tasks On Hold\"\n        );\n        \n        tasks[_id].status = 5;\n    }\n    \n    function cancelTask(uint _id) public {\n        \n    }\n    \n}\n\n",
  "sourcePath": "/home/melo/Desktop/DrizzleTogether/contracts/Project.sol",
  "compiler": {
    "name": "solc",
    "version": "0.5.16+commit.9c3226ce.Emscripten.clang"
  },
  "schemaVersion": "3.0.23",
  "updatedAt": "2020-04-13T22:45:33.294Z",
  "networkType": "ethereum",
  "devdoc": {
    "methods": {}
  },
  "userdoc": {
    "methods": {}
  }
}